{
  "contractName": "MerkleStarter",
  "abi": [
    {
      "inputs": [
        {
          "internalType": "contract IERC20",
          "name": "_token",
          "type": "address"
        },
        {
          "internalType": "uint256",
          "name": "_rate",
          "type": "uint256"
        }
      ],
      "stateMutability": "nonpayable",
      "type": "constructor"
    },
    {
      "anonymous": false,
      "inputs": [
        {
          "indexed": false,
          "internalType": "address",
          "name": "claimant",
          "type": "address"
        },
        {
          "indexed": false,
          "internalType": "uint256",
          "name": "Month",
          "type": "uint256"
        },
        {
          "indexed": false,
          "internalType": "uint256",
          "name": "balance",
          "type": "uint256"
        }
      ],
      "name": "Claimed",
      "type": "event"
    },
    {
      "anonymous": false,
      "inputs": [
        {
          "indexed": true,
          "internalType": "address",
          "name": "previousOwner",
          "type": "address"
        },
        {
          "indexed": true,
          "internalType": "address",
          "name": "newOwner",
          "type": "address"
        }
      ],
      "name": "OwnershipTransferred",
      "type": "event"
    },
    {
      "anonymous": false,
      "inputs": [
        {
          "indexed": false,
          "internalType": "uint256",
          "name": "tranche",
          "type": "uint256"
        },
        {
          "indexed": false,
          "internalType": "bytes32",
          "name": "merkleRoot",
          "type": "bytes32"
        },
        {
          "indexed": false,
          "internalType": "uint256",
          "name": "totalAmount",
          "type": "uint256"
        }
      ],
      "name": "TrancheAdded",
      "type": "event"
    },
    {
      "anonymous": false,
      "inputs": [
        {
          "indexed": false,
          "internalType": "uint256",
          "name": "tranche",
          "type": "uint256"
        }
      ],
      "name": "TrancheExpired",
      "type": "event"
    },
    {
      "inputs": [
        {
          "internalType": "uint256",
          "name": "",
          "type": "uint256"
        },
        {
          "internalType": "address",
          "name": "",
          "type": "address"
        }
      ],
      "name": "claimed",
      "outputs": [
        {
          "internalType": "bool",
          "name": "",
          "type": "bool"
        }
      ],
      "stateMutability": "view",
      "type": "function",
      "constant": true
    },
    {
      "inputs": [
        {
          "internalType": "uint256",
          "name": "",
          "type": "uint256"
        }
      ],
      "name": "merkleRoots",
      "outputs": [
        {
          "internalType": "bytes32",
          "name": "",
          "type": "bytes32"
        }
      ],
      "stateMutability": "view",
      "type": "function",
      "constant": true
    },
    {
      "inputs": [],
      "name": "owner",
      "outputs": [
        {
          "internalType": "address",
          "name": "",
          "type": "address"
        }
      ],
      "stateMutability": "view",
      "type": "function",
      "constant": true
    },
    {
      "inputs": [],
      "name": "rate",
      "outputs": [
        {
          "internalType": "uint256",
          "name": "",
          "type": "uint256"
        }
      ],
      "stateMutability": "view",
      "type": "function",
      "constant": true
    },
    {
      "inputs": [],
      "name": "renounceOwnership",
      "outputs": [],
      "stateMutability": "nonpayable",
      "type": "function"
    },
    {
      "inputs": [],
      "name": "token",
      "outputs": [
        {
          "internalType": "contract IERC20",
          "name": "",
          "type": "address"
        }
      ],
      "stateMutability": "view",
      "type": "function",
      "constant": true
    },
    {
      "inputs": [],
      "name": "tranches",
      "outputs": [
        {
          "internalType": "uint256",
          "name": "",
          "type": "uint256"
        }
      ],
      "stateMutability": "view",
      "type": "function",
      "constant": true
    },
    {
      "inputs": [
        {
          "internalType": "address",
          "name": "newOwner",
          "type": "address"
        }
      ],
      "name": "transferOwnership",
      "outputs": [],
      "stateMutability": "nonpayable",
      "type": "function"
    },
    {
      "inputs": [
        {
          "internalType": "bytes32",
          "name": "_merkleRoot",
          "type": "bytes32"
        },
        {
          "internalType": "uint256",
          "name": "_totalAllocation",
          "type": "uint256"
        }
      ],
      "name": "seedNewAllocations",
      "outputs": [
        {
          "internalType": "uint256",
          "name": "trancheId",
          "type": "uint256"
        }
      ],
      "stateMutability": "nonpayable",
      "type": "function"
    },
    {
      "inputs": [
        {
          "internalType": "uint256",
          "name": "_trancheId",
          "type": "uint256"
        }
      ],
      "name": "expireTranche",
      "outputs": [],
      "stateMutability": "nonpayable",
      "type": "function"
    },
    {
      "inputs": [
        {
          "internalType": "address",
          "name": "user",
          "type": "address"
        },
        {
          "internalType": "uint256",
          "name": "_tranche",
          "type": "uint256"
        },
        {
          "internalType": "uint256",
          "name": "_balance",
          "type": "uint256"
        },
        {
          "internalType": "bytes32[]",
          "name": "_merkleProof",
          "type": "bytes32[]"
        }
      ],
      "name": "claim",
      "outputs": [],
      "stateMutability": "payable",
      "type": "function",
      "payable": true
    },
    {
      "inputs": [
        {
          "internalType": "address",
          "name": "user",
          "type": "address"
        },
        {
          "internalType": "uint256[]",
          "name": "_tranches",
          "type": "uint256[]"
        },
        {
          "internalType": "uint256[]",
          "name": "_balances",
          "type": "uint256[]"
        },
        {
          "internalType": "bytes32[][]",
          "name": "_merkleProofs",
          "type": "bytes32[][]"
        }
      ],
      "name": "multiClaim",
      "outputs": [],
      "stateMutability": "nonpayable",
      "type": "function"
    },
    {
      "inputs": [
        {
          "internalType": "address",
          "name": "user",
          "type": "address"
        },
        {
          "internalType": "uint256",
          "name": "_tranche",
          "type": "uint256"
        },
        {
          "internalType": "uint256",
          "name": "_balance",
          "type": "uint256"
        },
        {
          "internalType": "bytes32[]",
          "name": "_merkleProof",
          "type": "bytes32[]"
        }
      ],
      "name": "verifyClaim",
      "outputs": [
        {
          "internalType": "bool",
          "name": "valid",
          "type": "bool"
        }
      ],
      "stateMutability": "view",
      "type": "function",
      "constant": true
    },
    {
      "inputs": [
        {
          "internalType": "uint256",
          "name": "_amount",
          "type": "uint256"
        }
      ],
      "name": "withdrawETH",
      "outputs": [],
      "stateMutability": "nonpayable",
      "type": "function"
    },
    {
      "inputs": [
        {
          "internalType": "uint256",
          "name": "_amount",
          "type": "uint256"
        }
      ],
      "name": "withdrawToken",
      "outputs": [],
      "stateMutability": "nonpayable",
      "type": "function"
    },
    {
      "inputs": [
        {
          "internalType": "address",
          "name": "_token",
          "type": "address"
        },
        {
          "internalType": "uint256",
          "name": "_amount",
          "type": "uint256"
        }
      ],
      "name": "withdrawERC20",
      "outputs": [],
      "stateMutability": "nonpayable",
      "type": "function"
    }
  ],
  "bytecode": "0x60806040523480156200001157600080fd5b5060405162002a0838038062002a0883398181016040528101906200003791906200016d565b6000620000496200013760201b60201c565b9050806000806101000a81548173ffffffffffffffffffffffffffffffffffffffff021916908373ffffffffffffffffffffffffffffffffffffffff1602179055508073ffffffffffffffffffffffffffffffffffffffff16600073ffffffffffffffffffffffffffffffffffffffff167f8be0079c531659141344cd1fd0a4f28419497f9722a3daafe3b4186f6b6457e060405160405180910390a35081600260006101000a81548173ffffffffffffffffffffffffffffffffffffffff021916908373ffffffffffffffffffffffffffffffffffffffff16021790555080600181905550505062000234565b600033905090565b600081519050620001508162000200565b92915050565b60008151905062000167816200021a565b92915050565b600080604083850312156200018157600080fd5b600062000191858286016200013f565b9250506020620001a48582860162000156565b9150509250929050565b6000620001bb82620001d6565b9050919050565b6000620001cf82620001ae565b9050919050565b600073ffffffffffffffffffffffffffffffffffffffff82169050919050565b6000819050919050565b6200020b81620001c2565b81146200021757600080fd5b50565b6200022581620001f6565b81146200023157600080fd5b50565b6127c480620002446000396000f3fe6080604052600436106100f35760003560e01c80638da5cb5b1161008a578063ebf0491711610059578063ebf0491714610319578063f14210a614610344578063f2fde38b1461036d578063fc0c546a14610396576100f3565b80638da5cb5b1461025f578063a1db97821461028a578063d5efd20a146102b3578063eb0d07f5146102dc576100f3565b80636192e69a116100c65780636192e69a146101a557806365ef53b1146101ce578063715018a61461020b57806371c5ecb114610222576100f3565b8063120aa877146100f8578063172bd6de146101355780632c4e722e1461015157806350baa6221461017c575b600080fd5b34801561010457600080fd5b5061011f600480360381019061011a9190611bd4565b6103c1565b60405161012c91906122a1565b60405180910390f35b61014f600480360381019061014a9190611aa2565b6103f0565b005b34801561015d57600080fd5b5061016661041d565b60405161017391906124d4565b60405180910390f35b34801561018857600080fd5b506101a3600480360381019061019e9190611b82565b610423565b005b3480156101b157600080fd5b506101cc60048036038101906101c791906119bb565b610682565b005b3480156101da57600080fd5b506101f560048036038101906101f09190611b46565b610777565b60405161020291906124d4565b60405180910390f35b34801561021757600080fd5b506102206108be565b005b34801561022e57600080fd5b5061024960048036038101906102449190611b82565b6109f9565b60405161025691906122bc565b60405180910390f35b34801561026b57600080fd5b50610274610a11565b60405161028191906121c6565b60405180910390f35b34801561029657600080fd5b506102b160048036038101906102ac9190611a66565b610a3a565b005b3480156102bf57600080fd5b506102da60048036038101906102d59190611b82565b610c56565b005b3480156102e857600080fd5b5061030360048036038101906102fe9190611aa2565b610d27565b60405161031091906122a1565b60405180910390f35b34801561032557600080fd5b5061032e610d3f565b60405161033b91906124d4565b60405180910390f35b34801561035057600080fd5b5061036b60048036038101906103669190611b82565b610d45565b005b34801561037957600080fd5b50610394600480360381019061038f9190611992565b610e91565b005b3480156103a257600080fd5b506103ab61103b565b6040516103b891906122d7565b60405180910390f35b60046020528160005260406000206020528060005260406000206000915091509054906101000a900460ff1681565b600154820234101561040157600080fd5b61040d84848484611061565b6104178483611238565b50505050565b60015481565b61042b6112d2565b73ffffffffffffffffffffffffffffffffffffffff16610449610a11565b73ffffffffffffffffffffffffffffffffffffffff161461049f576040517f08c379a000000000000000000000000000000000000000000000000000000000815260040161049690612414565b60405180910390fd5b600081116104e2576040517f08c379a00000000000000000000000000000000000000000000000000000000081526004016104d990612374565b60405180910390fd5b80600260009054906101000a900473ffffffffffffffffffffffffffffffffffffffff1673ffffffffffffffffffffffffffffffffffffffff166370a08231306040518263ffffffff1660e01b815260040161053e91906121c6565b60206040518083038186803b15801561055657600080fd5b505afa15801561056a573d6000803e3d6000fd5b505050506040513d601f19601f8201168201806040525081019061058e9190611bab565b10156105cf576040517f08c379a00000000000000000000000000000000000000000000000000000000081526004016105c690612314565b60405180910390fd5b600260009054906101000a900473ffffffffffffffffffffffffffffffffffffffff1673ffffffffffffffffffffffffffffffffffffffff1663a9059cbb33836040518363ffffffff1660e01b815260040161062c9291906121e1565b602060405180830381600087803b15801561064657600080fd5b505af115801561065a573d6000803e3d6000fd5b505050506040513d601f19601f8201168201806040525081019061067e9190611b1d565b5050565b6000835190508251811480156106985750815181145b6106d7576040517f08c379a00000000000000000000000000000000000000000000000000000000081526004016106ce90612494565b60405180910390fd5b600080905060008090505b828110156107645761072f878783815181106106fa57fe5b602002602001015187848151811061070e57fe5b602002602001015187858151811061072257fe5b6020026020010151611061565b61075585828151811061073e57fe5b6020026020010151836112da90919063ffffffff16565b915080806001019150506106e2565b5061076f8682611238565b505050505050565b60006107816112d2565b73ffffffffffffffffffffffffffffffffffffffff1661079f610a11565b73ffffffffffffffffffffffffffffffffffffffff16146107f5576040517f08c379a00000000000000000000000000000000000000000000000000000000081526004016107ec90612414565b60405180910390fd5b610844333084600260009054906101000a900473ffffffffffffffffffffffffffffffffffffffff1673ffffffffffffffffffffffffffffffffffffffff1661132f909392919063ffffffff16565b600554905082600360008381526020019081526020016000208190555061087760016005546112da90919063ffffffff16565b6005819055507f5c8770684b8f82e9ade880fb05ccfb53c969170cd40e9746a3703f241c9023ec8184846040516108b0939291906124ef565b60405180910390a192915050565b6108c66112d2565b73ffffffffffffffffffffffffffffffffffffffff166108e4610a11565b73ffffffffffffffffffffffffffffffffffffffff161461093a576040517f08c379a000000000000000000000000000000000000000000000000000000000815260040161093190612414565b60405180910390fd5b600073ffffffffffffffffffffffffffffffffffffffff166000809054906101000a900473ffffffffffffffffffffffffffffffffffffffff1673ffffffffffffffffffffffffffffffffffffffff167f8be0079c531659141344cd1fd0a4f28419497f9722a3daafe3b4186f6b6457e060405160405180910390a360008060006101000a81548173ffffffffffffffffffffffffffffffffffffffff021916908373ffffffffffffffffffffffffffffffffffffffff160217905550565b60036020528060005260406000206000915090505481565b60008060009054906101000a900473ffffffffffffffffffffffffffffffffffffffff16905090565b610a426112d2565b73ffffffffffffffffffffffffffffffffffffffff16610a60610a11565b73ffffffffffffffffffffffffffffffffffffffff1614610ab6576040517f08c379a0000000000000000000000000000000000000000000000000000000008152600401610aad90612414565b60405180910390fd5b60008111610af9576040517f08c379a0000000000000000000000000000000000000000000000000000000008152600401610af090612374565b60405180910390fd5b808273ffffffffffffffffffffffffffffffffffffffff166370a08231306040518263ffffffff1660e01b8152600401610b3391906121c6565b60206040518083038186803b158015610b4b57600080fd5b505afa158015610b5f573d6000803e3d6000fd5b505050506040513d601f19601f82011682018060405250810190610b839190611bab565b1015610bc4576040517f08c379a0000000000000000000000000000000000000000000000000000000008152600401610bbb90612314565b60405180910390fd5b8173ffffffffffffffffffffffffffffffffffffffff1663a9059cbb33836040518363ffffffff1660e01b8152600401610bff9291906121e1565b602060405180830381600087803b158015610c1957600080fd5b505af1158015610c2d573d6000803e3d6000fd5b505050506040513d601f19601f82011682018060405250810190610c519190611b1d565b505050565b610c5e6112d2565b73ffffffffffffffffffffffffffffffffffffffff16610c7c610a11565b73ffffffffffffffffffffffffffffffffffffffff1614610cd2576040517f08c379a0000000000000000000000000000000000000000000000000000000008152600401610cc990612414565b60405180910390fd5b6000801b60036000838152602001908152602001600020819055507fcc071cbd9ae50a4c78d1153b76bd2d46ba8d4c7662842718ec3de1d67a144daf81604051610d1c91906124d4565b60405180910390a150565b6000610d35858585856113b8565b9050949350505050565b60055481565b610d4d6112d2565b73ffffffffffffffffffffffffffffffffffffffff16610d6b610a11565b73ffffffffffffffffffffffffffffffffffffffff1614610dc1576040517f08c379a0000000000000000000000000000000000000000000000000000000008152600401610db890612414565b60405180910390fd5b60008111610e04576040517f08c379a0000000000000000000000000000000000000000000000000000000008152600401610dfb90612374565b60405180910390fd5b80471015610e47576040517f08c379a0000000000000000000000000000000000000000000000000000000008152600401610e3e906123f4565b60405180910390fd5b3373ffffffffffffffffffffffffffffffffffffffff166108fc829081150290604051600060405180830381858888f19350505050158015610e8d573d6000803e3d6000fd5b5050565b610e996112d2565b73ffffffffffffffffffffffffffffffffffffffff16610eb7610a11565b73ffffffffffffffffffffffffffffffffffffffff1614610f0d576040517f08c379a0000000000000000000000000000000000000000000000000000000008152600401610f0490612414565b60405180910390fd5b600073ffffffffffffffffffffffffffffffffffffffff168173ffffffffffffffffffffffffffffffffffffffff161415610f7d576040517f08c379a0000000000000000000000000000000000000000000000000000000008152600401610f7490612334565b60405180910390fd5b8073ffffffffffffffffffffffffffffffffffffffff166000809054906101000a900473ffffffffffffffffffffffffffffffffffffffff1673ffffffffffffffffffffffffffffffffffffffff167f8be0079c531659141344cd1fd0a4f28419497f9722a3daafe3b4186f6b6457e060405160405180910390a3806000806101000a81548173ffffffffffffffffffffffffffffffffffffffff021916908373ffffffffffffffffffffffffffffffffffffffff16021790555050565b600260009054906101000a900473ffffffffffffffffffffffffffffffffffffffff1681565b60055483106110a5576040517f08c379a000000000000000000000000000000000000000000000000000000000815260040161109c90612474565b60405180910390fd5b6004600084815260200190815260200160002060008573ffffffffffffffffffffffffffffffffffffffff1673ffffffffffffffffffffffffffffffffffffffff16815260200190815260200160002060009054906101000a900460ff1615611143576040517f08c379a000000000000000000000000000000000000000000000000000000000815260040161113a90612354565b60405180910390fd5b61114f848484846113b8565b61118e576040517f08c379a000000000000000000000000000000000000000000000000000000000815260040161118590612394565b60405180910390fd5b60016004600085815260200190815260200160002060008673ffffffffffffffffffffffffffffffffffffffff1673ffffffffffffffffffffffffffffffffffffffff16815260200190815260200160002060006101000a81548160ff0219169083151502179055507f987d620f307ff6b94d58743cb7a7509f24071586a77759b77c2d4e29f75a2f9a84848460405161122a9392919061226a565b60405180910390a150505050565b60008111156112935761128e8282600260009054906101000a900473ffffffffffffffffffffffffffffffffffffffff1673ffffffffffffffffffffffffffffffffffffffff1661140f9092919063ffffffff16565b6112ce565b6040517f08c379a00000000000000000000000000000000000000000000000000000000081526004016112c590612434565b60405180910390fd5b5050565b600033905090565b600080828401905083811015611325576040517f08c379a000000000000000000000000000000000000000000000000000000000815260040161131c906123b4565b60405180910390fd5b8091505092915050565b6113b2846323b872dd60e01b8585856040516024016113509392919061220a565b604051602081830303815290604052907bffffffffffffffffffffffffffffffffffffffffffffffffffffffff19166020820180517bffffffffffffffffffffffffffffffffffffffffffffffffffffffff8381831617835250505050611495565b50505050565b60008085846040516020016113ce929190612157565b6040516020818303038152906040528051906020012090506114048360036000888152602001908152602001600020548361155c565b915050949350505050565b6114908363a9059cbb60e01b848460405160240161142e929190612241565b604051602081830303815290604052907bffffffffffffffffffffffffffffffffffffffffffffffffffffffff19166020820180517bffffffffffffffffffffffffffffffffffffffffffffffffffffffff8381831617835250505050611495565b505050565b60606114f7826040518060400160405280602081526020017f5361666545524332303a206c6f772d6c6576656c2063616c6c206661696c65648152508573ffffffffffffffffffffffffffffffffffffffff166116089092919063ffffffff16565b905060008151111561155757808060200190518101906115179190611b1d565b611556576040517f08c379a000000000000000000000000000000000000000000000000000000000815260040161154d906124b4565b60405180910390fd5b5b505050565b60008082905060008090505b85518110156115fa57600086828151811061157f57fe5b602002602001015190508083116115c05782816040516020016115a3929190612183565b6040516020818303038152906040528051906020012092506115ec565b80836040516020016115d3929190612183565b6040516020818303038152906040528051906020012092505b508080600101915050611568565b508381149150509392505050565b60606116178484600085611620565b90509392505050565b606082471015611665576040517f08c379a000000000000000000000000000000000000000000000000000000000815260040161165c906123d4565b60405180910390fd5b61166e85611735565b6116ad576040517f08c379a00000000000000000000000000000000000000000000000000000000081526004016116a490612454565b60405180910390fd5b600060608673ffffffffffffffffffffffffffffffffffffffff1685876040516116d791906121af565b60006040518083038185875af1925050503d8060008114611714576040519150601f19603f3d011682016040523d82523d6000602084013e611719565b606091505b5091509150611729828286611748565b92505050949350505050565b600080823b905060008111915050919050565b60608315611758578290506117a8565b60008351111561176b5782518084602001fd5b816040517f08c379a000000000000000000000000000000000000000000000000000000000815260040161179f91906122f2565b60405180910390fd5b9392505050565b6000813590506117be81612732565b92915050565b600082601f8301126117d557600080fd5b81356117e86117e382612553565b612526565b9150818183526020840193506020810190508360005b8381101561182e57813586016118148882611838565b8452602084019350602083019250506001810190506117fe565b5050505092915050565b600082601f83011261184957600080fd5b813561185c6118578261257b565b612526565b9150818183526020840193506020810190508385602084028201111561188157600080fd5b60005b838110156118b157816118978882611953565b845260208401935060208301925050600181019050611884565b5050505092915050565b600082601f8301126118cc57600080fd5b81356118df6118da826125a3565b612526565b9150818183526020840193506020810190508385602084028201111561190457600080fd5b60005b83811015611934578161191a8882611968565b845260208401935060208301925050600181019050611907565b5050505092915050565b60008151905061194d81612749565b92915050565b60008135905061196281612760565b92915050565b60008135905061197781612777565b92915050565b60008151905061198c81612777565b92915050565b6000602082840312156119a457600080fd5b60006119b2848285016117af565b91505092915050565b600080600080608085870312156119d157600080fd5b60006119df878288016117af565b945050602085013567ffffffffffffffff8111156119fc57600080fd5b611a08878288016118bb565b935050604085013567ffffffffffffffff811115611a2557600080fd5b611a31878288016118bb565b925050606085013567ffffffffffffffff811115611a4e57600080fd5b611a5a878288016117c4565b91505092959194509250565b60008060408385031215611a7957600080fd5b6000611a87858286016117af565b9250506020611a9885828601611968565b9150509250929050565b60008060008060808587031215611ab857600080fd5b6000611ac6878288016117af565b9450506020611ad787828801611968565b9350506040611ae887828801611968565b925050606085013567ffffffffffffffff811115611b0557600080fd5b611b1187828801611838565b91505092959194509250565b600060208284031215611b2f57600080fd5b6000611b3d8482850161193e565b91505092915050565b60008060408385031215611b5957600080fd5b6000611b6785828601611953565b9250506020611b7885828601611968565b9150509250929050565b600060208284031215611b9457600080fd5b6000611ba284828501611968565b91505092915050565b600060208284031215611bbd57600080fd5b6000611bcb8482850161197d565b91505092915050565b60008060408385031215611be757600080fd5b6000611bf585828601611968565b9250506020611c06858286016117af565b9150509250929050565b611c198161264f565b82525050565b611c28816125fd565b82525050565b611c3f611c3a826125fd565b6126dc565b82525050565b611c4e8161260f565b82525050565b611c5d8161261b565b82525050565b611c74611c6f8261261b565b6126ee565b82525050565b6000611c85826125cb565b611c8f81856125e1565b9350611c9f8185602086016126a9565b80840191505092915050565b611cb481612661565b82525050565b6000611cc5826125d6565b611ccf81856125ec565b9350611cdf8185602086016126a9565b611ce881612714565b840191505092915050565b6000611d00601a836125ec565b91507f5468652062616c616e6365206973206e6f7420656e6f756768210000000000006000830152602082019050919050565b6000611d406026836125ec565b91507f4f776e61626c653a206e6577206f776e657220697320746865207a65726f206160008301527f64647265737300000000000000000000000000000000000000000000000000006020830152604082019050919050565b6000611da66017836125ec565b91507f796f752068617320616c726561647920636c61696d65640000000000000000006000830152602082019050919050565b6000611de6601e836125ec565b91507f5f616d6f756e74206d7573742062652067726561746572207468616e203000006000830152602082019050919050565b6000611e266016836125ec565b91507f496e636f7272656374206d65726b6c652070726f6f66000000000000000000006000830152602082019050919050565b6000611e66601b836125ec565b91507f536166654d6174683a206164646974696f6e206f766572666c6f7700000000006000830152602082019050919050565b6000611ea66026836125ec565b91507f416464726573733a20696e73756666696369656e742062616c616e636520666f60008301527f722063616c6c00000000000000000000000000000000000000000000000000006020830152604082019050919050565b6000611f0c6039836125ec565b91507f5f616d6f756e74206d757374206265206c657373207468616e2074686520455460008301527f482062616c616e6365206f662074686520636f6e7472616374000000000000006020830152604082019050919050565b6000611f726020836125ec565b91507f4f776e61626c653a2063616c6c6572206973206e6f7420746865206f776e65726000830152602082019050919050565b6000611fb2603d836125ec565b91507f4e6f2062616c616e636520776f756c64206265207472616e736665727265642060008301527f2d206e6f7420676f696e6720746f20776173746520796f7572206761730000006020830152604082019050919050565b6000612018601d836125ec565b91507f416464726573733a2063616c6c20746f206e6f6e2d636f6e74726163740000006000830152602082019050919050565b6000612058601d836125ec565b91507f596f752063616e6e6f7420636c61696d2066757475726520746f6b656e0000006000830152602082019050919050565b60006120986012836125ec565b91507f4d69736d61746368696e6720696e7075747300000000000000000000000000006000830152602082019050919050565b60006120d8602a836125ec565b91507f5361666545524332303a204552433230206f7065726174696f6e20646964206e60008301527f6f742073756363656564000000000000000000000000000000000000000000006020830152604082019050919050565b61213a81612645565b82525050565b61215161214c82612645565b61270a565b82525050565b60006121638285611c2e565b6014820191506121738284612140565b6020820191508190509392505050565b600061218f8285611c63565b60208201915061219f8284611c63565b6020820191508190509392505050565b60006121bb8284611c7a565b915081905092915050565b60006020820190506121db6000830184611c1f565b92915050565b60006040820190506121f66000830185611c10565b6122036020830184612131565b9392505050565b600060608201905061221f6000830186611c1f565b61222c6020830185611c1f565b6122396040830184612131565b949350505050565b60006040820190506122566000830185611c1f565b6122636020830184612131565b9392505050565b600060608201905061227f6000830186611c1f565b61228c6020830185612131565b6122996040830184612131565b949350505050565b60006020820190506122b66000830184611c45565b92915050565b60006020820190506122d16000830184611c54565b92915050565b60006020820190506122ec6000830184611cab565b92915050565b6000602082019050818103600083015261230c8184611cba565b905092915050565b6000602082019050818103600083015261232d81611cf3565b9050919050565b6000602082019050818103600083015261234d81611d33565b9050919050565b6000602082019050818103600083015261236d81611d99565b9050919050565b6000602082019050818103600083015261238d81611dd9565b9050919050565b600060208201905081810360008301526123ad81611e19565b9050919050565b600060208201905081810360008301526123cd81611e59565b9050919050565b600060208201905081810360008301526123ed81611e99565b9050919050565b6000602082019050818103600083015261240d81611eff565b9050919050565b6000602082019050818103600083015261242d81611f65565b9050919050565b6000602082019050818103600083015261244d81611fa5565b9050919050565b6000602082019050818103600083015261246d8161200b565b9050919050565b6000602082019050818103600083015261248d8161204b565b9050919050565b600060208201905081810360008301526124ad8161208b565b9050919050565b600060208201905081810360008301526124cd816120cb565b9050919050565b60006020820190506124e96000830184612131565b92915050565b60006060820190506125046000830186612131565b6125116020830185611c54565b61251e6040830184612131565b949350505050565b6000604051905081810181811067ffffffffffffffff8211171561254957600080fd5b8060405250919050565b600067ffffffffffffffff82111561256a57600080fd5b602082029050602081019050919050565b600067ffffffffffffffff82111561259257600080fd5b602082029050602081019050919050565b600067ffffffffffffffff8211156125ba57600080fd5b602082029050602081019050919050565b600081519050919050565b600081519050919050565b600081905092915050565b600082825260208201905092915050565b600061260882612625565b9050919050565b60008115159050919050565b6000819050919050565b600073ffffffffffffffffffffffffffffffffffffffff82169050919050565b6000819050919050565b600061265a82612685565b9050919050565b600061266c82612673565b9050919050565b600061267e82612625565b9050919050565b600061269082612697565b9050919050565b60006126a282612625565b9050919050565b60005b838110156126c75780820151818401526020810190506126ac565b838111156126d6576000848401525b50505050565b60006126e7826126f8565b9050919050565b6000819050919050565b600061270382612725565b9050919050565b6000819050919050565b6000601f19601f8301169050919050565b60008160601b9050919050565b61273b816125fd565b811461274657600080fd5b50565b6127528161260f565b811461275d57600080fd5b50565b6127698161261b565b811461277457600080fd5b50565b61278081612645565b811461278b57600080fd5b5056fea2646970667358221220eef1f8035a1d0ffa588ce65f5923e9f7cb8b4a7ed1b099dfc2d138f6bc44be9864736f6c63430006060033",
  "immutableReferences": {},
  "source": "// SPDX-License-Identifier: MIT\r\npragma solidity ^0.6.6;\r\npragma experimental ABIEncoderV2;\r\n\r\nimport \"@openzeppelin/contracts/cryptography/MerkleProof.sol\";\r\nimport \"@openzeppelin/contracts/token/ERC20/IERC20.sol\";\r\nimport \"@openzeppelin/contracts/token/ERC20/SafeERC20.sol\";\r\nimport \"@openzeppelin/contracts/math/SafeMath.sol\";\r\nimport \"@openzeppelin/contracts/proxy/Initializable.sol\";\r\nimport \"@openzeppelin/contracts/access/Ownable.sol\";\r\n\r\ncontract MerkleStarter is Ownable {\r\n    using SafeERC20 for IERC20;\r\n    using SafeMath for uint256;\r\n\r\n    event Claimed(address claimant, uint256 Month, uint256 balance);\r\n    event TrancheAdded(\r\n        uint256 tranche,\r\n        bytes32 merkleRoot,\r\n        uint256 totalAmount\r\n    );\r\n\r\n    uint public rate;\r\n\r\n    event TrancheExpired(uint256 tranche);\r\n\r\n    IERC20 public token;\r\n\r\n    mapping(uint256 => bytes32) public merkleRoots;\r\n    mapping(uint256 => mapping(address => bool)) public claimed;\r\n    uint256 public tranches;\r\n\r\n    constructor(IERC20 _token, uint256 _rate) public {\r\n        token = _token;\r\n        rate = _rate;\r\n    }\r\n\r\n    function seedNewAllocations(bytes32 _merkleRoot, uint256 _totalAllocation)\r\n        public\r\n        onlyOwner\r\n        returns (uint256 trancheId)\r\n    {\r\n        token.safeTransferFrom(msg.sender, address(this), _totalAllocation);\r\n\r\n        trancheId = tranches;\r\n        merkleRoots[trancheId] = _merkleRoot;\r\n\r\n        tranches = tranches.add(1);\r\n\r\n        emit TrancheAdded(trancheId, _merkleRoot, _totalAllocation);\r\n    }\r\n\r\n    function expireTranche(uint256 _trancheId) public onlyOwner {\r\n        merkleRoots[_trancheId] = bytes32(0);\r\n\r\n        emit TrancheExpired(_trancheId);\r\n    }\r\n\r\n    function claim(\r\n        address user,\r\n        uint256 _tranche,\r\n        uint256 _balance,\r\n        bytes32[] memory _merkleProof\r\n    ) public payable {\r\n        require(msg.value >= _balance * rate);\r\n        _claim(user, _tranche, _balance, _merkleProof);\r\n        _disburse(user, _balance);\r\n    }\r\n\r\n    function multiClaim(\r\n        address user,\r\n        uint256[] memory _tranches,\r\n        uint256[] memory _balances,\r\n        bytes32[][] memory _merkleProofs\r\n    ) public {\r\n        uint256 len = _tranches.length;\r\n        require(\r\n            len == _balances.length && len == _merkleProofs.length,\r\n            \"Mismatching inputs\"\r\n        );\r\n\r\n        uint256 totalBalance = 0;\r\n        for (uint256 i = 0; i < len; i++) {\r\n            _claim(user, _tranches[i], _balances[i], _merkleProofs[i]);\r\n            totalBalance = totalBalance.add(_balances[i]);\r\n        }\r\n        _disburse(user, totalBalance);\r\n    }\r\n\r\n    function verifyClaim(\r\n        address user,\r\n        uint256 _tranche,\r\n        uint256 _balance,\r\n        bytes32[] memory _merkleProof\r\n    ) public view returns (bool valid) {\r\n        return _verifyClaim(user, _tranche, _balance, _merkleProof);\r\n    }\r\n\r\n    function _claim(\r\n        address user,\r\n        uint256 _tranche,\r\n        uint256 _balance,\r\n        bytes32[] memory _merkleProof\r\n    ) private {\r\n        require(_tranche < tranches, \"You cannot claim future token\");\r\n\r\n        require(!claimed[_tranche][user], \"you has already claimed\");\r\n        require(\r\n            _verifyClaim(user, _tranche, _balance, _merkleProof),\r\n            \"Incorrect merkle proof\"\r\n        );\r\n\r\n        claimed[_tranche][user] = true;\r\n\r\n        emit Claimed(user, _tranche, _balance);\r\n    }\r\n\r\n    function _verifyClaim(\r\n        address user,\r\n        uint256 _tranche,\r\n        uint256 _balance,\r\n        bytes32[] memory _merkleProof\r\n    ) private view returns (bool valid) {\r\n        bytes32 leaf = keccak256(abi.encodePacked(user, _balance));\r\n        return MerkleProof.verify(_merkleProof, merkleRoots[_tranche], leaf);\r\n    }\r\n\r\n    function _disburse(address user, uint256 _balance) private {\r\n        if (_balance > 0) {\r\n            token.safeTransfer(user, _balance);\r\n        } else {\r\n            revert(\r\n                \"No balance would be transferred - not going to waste your gas\"\r\n            );\r\n        }\r\n    }\r\n\r\n    /**\r\n     * @dev function withdraw ETH to account owner\r\n     * @param _amount is amount withdraw\r\n     */\r\n    function withdrawETH(uint256 _amount) external onlyOwner {\r\n        require(_amount > 0, \"_amount must be greater than 0\");\r\n        require(\r\n            address(this).balance >= _amount,\r\n            \"_amount must be less than the ETH balance of the contract\"\r\n        );\r\n        msg.sender.transfer(_amount);\r\n    }\r\n\r\n    /**\r\n     * @dev function withdraw token to account owner\r\n     * @param _amount is amount withdraw\r\n     */\r\n    function withdrawToken(uint256 _amount) external onlyOwner {\r\n        require(_amount > 0, \"_amount must be greater than 0\");\r\n        require(\r\n            token.balanceOf(address(this)) >= _amount,\r\n            \"The balance is not enough!\"\r\n        );\r\n        token.transfer(msg.sender, _amount);\r\n    }\r\n\r\n    /**\r\n     * @dev function withdraw ERC20 token to account owner\r\n     * @param _token is address of the token\r\n     * @param _amount is amount withdraw\r\n     */\r\n    function withdrawERC20(address _token, uint256 _amount) external onlyOwner {\r\n        require(_amount > 0, \"_amount must be greater than 0\");\r\n        require(\r\n            IERC20(_token).balanceOf(address(this)) >= _amount,\r\n            \"The balance is not enough!\"\r\n        );\r\n        IERC20(_token).transfer(msg.sender, _amount);\r\n    }\r\n}\r\n",
  "sourcePath": "C:/Users/Adi/Documents/BinanceIDO/merklestarter/contracts/contracts/MerkleStarter.sol",
  "compiler": {
    "name": "solc",
    "version": "0.6.6+commit.6c089d02.Emscripten.clang"
  },
  "schemaVersion": "3.3.4",
  "updatedAt": "2021-11-08T08:28:35.037Z",
  "networkType": "ethereum",
  "devdoc": {
    "methods": {
      "owner()": {
        "details": "Returns the address of the current owner."
      },
      "renounceOwnership()": {
        "details": "Leaves the contract without owner. It will not be possible to call `onlyOwner` functions anymore. Can only be called by the current owner.     * NOTE: Renouncing ownership will leave the contract without an owner, thereby removing any functionality that is only available to the owner."
      },
      "transferOwnership(address)": {
        "details": "Transfers ownership of the contract to a new account (`newOwner`). Can only be called by the current owner."
      },
      "withdrawERC20(address,uint256)": {
        "details": "function withdraw ERC20 token to account owner",
        "params": {
          "_amount": "is amount withdraw",
          "_token": "is address of the token"
        }
      },
      "withdrawETH(uint256)": {
        "details": "function withdraw ETH to account owner",
        "params": {
          "_amount": "is amount withdraw"
        }
      },
      "withdrawToken(uint256)": {
        "details": "function withdraw token to account owner",
        "params": {
          "_amount": "is amount withdraw"
        }
      }
    }
  },
  "userdoc": {
    "methods": {}
  }
}